:10000000D7C00000FAC00000F8C00000F6C0000031
:10001000F4C00000F2C00000F0C00000EEC000001C
:10002000ECC00000EAC0000082C40000F9C4000077
:10003000E4C00000E2C00000E0C00000DEC000003C
:10004000DCC00000DAC00000D8C00000D6C000004C
:10005000D4C00000D2C00000D0C00000C7C3000060
:10006000CCC00000DEC1000003C200002EC20000B0
:10007000C4C00000C2C00000C0C00000BEC000007C
:10008000BCC00000BAC00000B8C00000B6C000008C
:10009000B4C00000B2C00000B0C00000AEC000009C
:1000A000ACC00000AAC00000A8C0000001230223C9
:1000B0000423082380230129022904290829402632
:1000C000802640298029102320234023802F402F81
:1000D000202F102F022F012F10292029402C000142
:1000E00000008F0112000200004C014300030000D9
:1000F000480104010309042E011802030904160132
:10010000160303090408010C0C033100320033000C
:100110003400350000001603550053004200200053
:10012000530065007200690061006C000000180354
:100130005400650065006E0073007900640075006E
:1001400069006E006F000000040309040902430007
:10015000020100C03209040000010202010005246E
:1001600000100105240100010424020605240600F4
:10017000010705820308004009040100020A00008B
:10018000000705030240000007058402400000123A
:1001900001000202000020C0168304710201020364
:1001A000010001C102018036018136007F02720820
:1001B00011241FBECFEFDAE0DEBFCDBF11E0A0E01B
:1001C000B1E0EAE1F1E102C005900D92A034B1077F
:1001D000D9F721E0A0E4B1E001C01D92AB3CB20729
:1001E000E1F710E0C8EDD0E003C02197FE018DD704
:1001F000C63DD107D1F7D6D18EC702CF3E9A469AD7
:10020000E0E9F0E080818F77808340E855E260E0AC
:1002100070E081EC91E000D742E150E068E071E0ED
:1002200081EC91E0F9D581EC91E0A2D14FEF64E34C
:1002300070E080E491E0BCC0CF93DF931F92CDB714
:10024000DEB780E491E01ED0892B61F080E491E07C
:100250004CD0898341E050E0BE016F5F7F4F81EC5D
:1002600091E0DAD581EC91E05CD5892B39F081EC15
:1002700091E090D5682F80E491E054D00F90DF9109
:10028000CF9108955091740140917301852F90E0B2
:10029000242F30E0541718F0821B930B0895805CD4
:1002A0009F4FFACF50914A0140914901252F30E0EC
:1002B000842F90E0821B930B541710F087960895BB
:1002C0000197089580917401E09173018E1751F0A8
:1002D000EF5FE03408F0E0E0F0E0EB58FE4F8081A3
:1002E00090E008958FEF9FEF0895909174018091B1
:1002F0007301981779F0909173019F5F903408F023
:1003000090E0E92FF0E0EB58FE4F8081909373016D
:1003100090E008958FEF9FEF08958091480181113B
:10032000FCCF08952091C90023FD06C021E0FC0107
:10033000228390E080E00895809100018F3F41F09A
:1003400080914801811104C0E0910001F0E08FD15B
:1003500090914A0180914901981304C08091C8008E
:1003600085FD19C080914A018F5F8832F8F4909121
:1003700049019817E1F3E82FF0E0E55BFE4F608359
:1003800091E09093480180934A018091C900806276
:100390008093C90008C08FB7F8946093CE0091E0B5
:1003A000909348018FBF81E090E0089580E0DFCF17
:1003B0001F93CF93DF93EB01142F409300014F3F26
:1003C00029F0842F43D1E12FF0E057D1C0FF24C0A2
:1003D000C13080E1D80700F582E08093C800219702
:1003E000D093CD00C093CC008091C90083FD10C094
:1003F000109274011092730110924A0110924901F7
:100400001092480186E08093CA0088ED8093C9006D
:10041000DF91CF911F9108951092C800D695C7958E
:10042000DECF1F920F920FB60F9211242F938F934E
:100430009F93EF93FF939091CE00809174018F5F13
:10044000803408F080E020917301281739F0E82FFC
:10045000F0E0EB58FE4F908380937401FF91EF9191
:100460009F918F912F910F900FBE0F901F90189515
:100470001F920F920FB60F9211248F939F93EF93B9
:10048000FF9390914A018091490198130EC0809189
:10049000C9008F7D8093C900FF91EF919F918F914B
:1004A0000F900FBE0F901F901895809149018F5F9C
:1004B000883208F080E0E82FF0E0E55BFE4F9081A5
:1004C0009093CE0080934901E7CF1F920F920FB611
:1004D0000F9211248F93EF93FF9310924801809114
:1004E00000018F3F21F0E0910001F0E0C6D0FF91C4
:1004F000EF918F910F900FBE0F901F901895E0E431
:10050000F1E0128288EE93E0A0E0B0E08383948370
:10051000A583B68317828FE191E09183808308954C
:10052000CF92DF92EF92FF920F931F93CF93DF93BF
:100530006C01EB017B01E40EF51E10E000E0CE152E
:10054000DF0561F06991D601ED91FC910190F08198
:10055000E02DC6010995080F191FF1CFC801DF91E1
:10056000CF911F910F91FF90EF90DF90CF90089562
:10057000CF93DF9300D0CDB7DEB72DE029832AE0FB
:100580002A83DC01ED91FC910280F381E02D42E0B1
:1005900050E0BE016F5F7F4F09950F900F90DF9184
:1005A000CF91089524D02ADE47DEFECF1DBA1092E7
:1005B00068001CBC10BE1FBA10927A0010926E0028
:1005C00010926F0010927100109272001092C90088
:1005D000ECEBF0E0108214B817B81AB81DB810BAD6
:1005E000108215B818B81BB81EB811BA0895F8943F
:1005F000E1E6F0E020E82083108283E084BD85BD41
:10060000EEE6F0E080818160808381E0809380006D
:1006100092E090938100809390009093910090934A
:10062000C00094E09093C1008093C2008093C30007
:100630001092C40086E880937A0020937B00109289
:100640007E0010927D0051D178940895893170F424
:10065000ECEAF0E0880FE80FF11D2591E491F0E05D
:100660009FB7F8948181822B81839FBF0895E931E0
:1006700050F4EE0FEC5BFC4F0994E93120F4EE0FDF
:10068000EA58FC4F09940895289A0895299A0895E4
:100690002A9A08952B9A08952F9A6AC0589A58C09A
:1006A000599A08955A9A08955B9A0895469A66C091
:1006B000479A6AC05E9A08955F9A6CC02C9A089512
:1006C0002D9A4AC02E9A4EC08F9A08958E9A0895F8
:1006D0008D9A08958C9A0895899A0895889A089514
:1006E0005C9A08955D9A0895769A089528980895D9
:1006F000299808952A9808952B9808952F9838C01E
:10070000589826C0599808955A9808955B98089566
:10071000469834C0479838C05E9808955F983AC0AC
:100720002C9808952D9818C02E981CC08F98089565
:100730008E9808958D9808958C98089589980895B5
:10074000889808955C9808955D980895769808951E
:10075000E4B5EF7DE4BD0895E0918000EF77E0938C
:1007600080000895E0918000EF7DE093800008957F
:10077000E0918000E77FE09380000895E091900091
:10078000EF77E09390000895E091C000EF77E09359
:10079000C0000895E091C200E77FE093C200089591
:1007A000F89484B7877F84BF8091600080618093D4
:1007B00060001092600080E29EE40197F1F781E012
:1007C0008093E00080E28093D80080E69AEE019763
:1007D000F1F7ECDE0C94003FFFCFF894E7DE80E603
:1007E0009AEE0197F1F70C940000FFCF8F938FB72B
:1007F0008F938091B5018D5F8D37D0F48093B501D3
:100800008091B6018F5F8093B601D8F08091B701D7
:100810008F4F8093B701A8F08091B8018F4F8093DC
:10082000B80178F08091B9018F4F8093B90109C068
:100830008D578093B5018091B6018E5F8093B6018C
:1008400028F78091BA018C5F8093BA0158F08091AB
:10085000BB018F4F8093BB0128F08091BC018F4F6B
:100860008093BC018F918FBF8F911895CF92DF92AB
:10087000EF92FF926B017C0119D09B01C114D1044E
:10088000E104F10429F4FF90EF90DF90CF900895F8
:100890000DD0621B730B683E734080F381E0C81A71
:1008A000D108E108F10828513C4FE8CF0FB6F89481
:1008B00066B515B27091BA018091BB019091BC01EF
:1008C0000FBE10FE05C06F3F19F07C5F8F4F9F4F2A
:1008D00011240024660F001C660F001C7029089567
:1008E0008091E80080FFFCCF08958091D80087FFB9
:1008F00002C085FF1BC081E08093D70080EA80930F
:10090000D80082E189BD09B400FEFDCF80E9809363
:10091000D8001092E0001092CD011092CC011092FC
:10092000CB011092E1008DE08093E20008951F92C8
:100930000F920FB60F9211242F933F934F935F9313
:100940006F937F938F939F93AF93BF93EF93FF9397
:100950009091E1001092E10093FF11C01092E90024
:1009600081E08093EB001092EC0082E28093ED0036
:1009700088E08093F0001092CD011092CB0192FF9D
:100980001DC08091CD018823C9F08091C0018823CA
:1009900059F081508093C001811106C084E080939A
:1009A000E9008AE38093E8008091BF01882331F059
:1009B00081508093BF01811101C0F2DE90FF0CC015
:1009C00080E18093E2001092CD0181E08093CC0120
:1009D00080EA8093D80019BC8091CC01882379F0FB
:1009E00094FF0DC082E189BD09B400FEFDCF80E90E
:1009F0008093D8008DE08093E2001092CC01FF91AB
:100A0000EF91BF91AF919F918F917F916F915F9186
:100A10004F913F912F910F900FBE0F901F901895FF
:100A20001F920F920FB60F921124EF92FF920F9325
:100A30001F932F933F934F935F936F937F938F9366
:100A40009F93AF93BF93CF93DF93EF93FF93109256
:100A5000E9008091E80083FF20C0D091F100C091AF
:100A6000F100E090F100F090F1000091F1001091A0
:100A7000F1002091F1003091F10082EF8093E800C5
:100A8000C63009F059C0EEEDF0E085919591E81679
:100A9000F90639F03596C150C1F781E28093EB0039
:100AA0002BC0859195910817190711F03396F3CF54
:100AB0004591559184912F3F310519F010F02FEF9A
:100AC00030E0821708F4282F3EEF8091E800982F3D
:100AD0009570D9F382FD10C0822F213208F080E298
:100AE000982F911122C0922F981B892F3093E800E4
:100AF000911119C02032B8F4FF91EF91DF91CF919D
:100B0000BF91AF919F918F917F916F915F914F9125
:100B10003F912F911F910F91FF90EF900F900FBE7B
:100B20000F901F901895282FD0CFFA014591409330
:100B3000F100AF019150D5CFC53049F48EEF8093CD
:100B4000E800CEDE8E2D80688093E300D5CFC930DB
:100B500021F5D111A2CFE092CD011092CB011092DC
:100B6000C0018EEF8093E80081E0E1EAF1E080933C
:100B7000E90095919093EB00992331F09591909332
:100B8000EC0095919093ED008F5F853081F78EE1B9
:100B90008093EA001092EA00AFCFC83061F4D038F9
:100BA00009F07BCF9DDE8091CD018093F1008EEF27
:100BB0008093E800A1CFC13279F4D13A09F06DCF2A
:100BC0008FDEE1E0F1E080818093F100319681E0F9
:100BD000E830F807C1F7EBCFC03209F047C0D13297
:100BE00009F05BCF8091E80082FFFCCFE1E0F1E00B
:100BF0008091F1008083319691E0E830F907C1F7E8
:100C00008BEF8093E8008EEF8093E8003091010134
:100C100040910201809103012091040190E0B0E035
:100C2000A0E0DC0199278827942B832BB22B8638F0
:100C30009105A105B10521F48FE08093BF015CCF40
:100C400086399105A105B10509F056CF84E080935E
:100C5000E9009FEF8091EE00837009F4BEDD909370
:100C6000E8008091E80082FDFCCFF4CFC23239F475
:100C7000D13209F012CFE092CB0132DE98CFC332ED
:100C800021F4D13209F009CFF8CFC11111C028DE0B
:100C9000D23849F40093E900C091EB00C5FBCC27A2
:100CA000C0F91092E900C093F1001092F1007FCFDB
:100CB0008C2F8D7F813009F0F0CED23009F0EDCE4F
:100CC000EF2809F0EACE0F778FEF800F863008F01B
:100CD000E4CE8EEF8093E8000093E900C33009F47E
:100CE000DCCE89E18093EB0081E090E001C0880FC9
:100CF0000A95EAF74DCFCF93DF931F92CDB7DEB7BA
:100D00006983DC01ED91FC910280F381E02D41E0EB
:100D100050E0BE016F5F7F4F09950F90DF91CF913B
:100D20000895FC018FB7F8949091CD0191110CC0FA
:100D300090E08FBF2085318537FD03C09F3F09F0CC
:100D40009F5F892F90E0089593E09093E900909140
:100D5000F2009111EECF2091E80022FFE9CF25FDAE
:100D6000E7CF2BE62093E800E4CFCF93DF93EC01AD
:100D70008885998597FF09C0E881F9810284F38508
:100D8000E02DCE0109959987888788859985DF911F
:100D9000CF910895FC012085318537FD07C04FEFC5
:100DA0005FEF51874087C901992708959FB7F8944D
:100DB0008091CD01811104C09FBF8FEF9FEF0895F7
:100DC00083E08093E9002BE68091E80085FD05C073
:100DD00082FFF2CF2093E800F7CF8091F1002091BD
:100DE000E80025FD03C02BE62093E8009FBF90E0BC
:100DF00008958091CD01882361F08FB7F89494E035
:100E00009093E9009091F2008FBF80E4891B90E0FD
:100E1000089590E080E00895BF92CF92DF92EF9224
:100E2000FF920F931F93CF93DF937C018091CD01AD
:100E3000811110C081E0F701828310E000E0C80159
:100E4000DF91CF911F910F91FF90EF90DF90CF90A6
:100E5000BF9008952FB7F89484E08093E9008091C3
:100E6000BE01882341F08091E80085FD02C02FBFBC
:100E7000E1CF1092BE0110E000E084E0D82E90E4B3
:100E8000C92EA1EFB0E03AE3B32E33E0411551058E
:100E900009F4C0C08091E400815F9091E80095FD65
:100EA00016C02FBF9091E400891306C081E08093A3
:100EB000BE01F7018283C3CF9091CD01911102C091
:100EC00081E0F7CF2FB7F894D092E900E6CF809178
:100ED000F2009C2D981B9417150611F008F0942F22
:100EE000E92FF0E04E1B5F0B0E0F1F1FEB01E0E43C
:100EF000E91BE03428F4EE0FFF27EF57F84F099471
:100F000080C099919C9399919C9399919C9399916C
:100F10009C9399919C9399919C9399919C9399916D
:100F20009C9399919C9399919C9399919C9399915D
:100F30009C9399919C9399919C9399919C9399914D
:100F40009C9399919C9399919C9399919C9399913D
:100F50009C9399919C9399919C9399919C9399912D
:100F60009C9399919C9399919C9399919C9399911D
:100F70009C9399919C9399919C9399919C9399910D
:100F80009C9399919C9399919C9399919C939991FD
:100F90009C9399919C9399919C9399919C939991ED
:100FA0009C9399919C9399919C9399919C939991DD
:100FB0009C9399919C9399919C9399919C939991CD
:100FC0009C9399919C9399919C9399919C939991BD
:100FD0009C9399919C9399919C9399919C939991AD
:100FE0009C9399919C9399919C9399919C9399919D
:100FF0009C9399919C9399919C9399919C9399918D
:101000009C93BE018091E80085FFB092E800309388
:10101000C0013CCF2FBF13CF2FEF3FEFFC01318733
:10102000208763DC0FB6F8948091B6019091B701E8
:10103000A091B801B091B9010FBE9C018091CD0182
:10104000882329F068EC70E080E090E00FCC80917C
:10105000CC01882301F10FB6F8944091B60150916C
:10106000B7016091B8017091B9010FBE8091CC01B8
:10107000882389F00FB6F8948091B6019091B7015A
:10108000A091B801B091B9010FBE841B950B8B3FA5
:10109000910560F308950FB6F8948091B601909190
:1010A000B701A091B801B091B9010FBE821B930B9B
:1010B000853C994008F4C2CF08958FB7F894909179
:1010C000CD01992361F09091C001992341F094E002
:1010D0009093E9009AE39093E8001092C0018FBFCB
:1010E0000895EBCFE1ECF1E011861086128288EED4
:1010F00093E0A0E0B0E083839483A583B683178256
:1011000081E391E0918380830895EE0FFF1F0590A6
:0A111000F491E02D0994F894FFCF4C
:10111A00FF00E10000000008456E7465722041542A
:10112A0020636F6D6D616E64733A00000000009277
:10113A0001900252018D0142017501620100000015
:10114A00007B060C07F90671089106CA06B5060067
:00000001FF
